:100000000C9434000C9451000C9451000C94510049
:100010000C9451000C9451000C9451000C9451001C
:100020000C9451000C9451000C9451000C9451000C
:100030000C9451000C9451000C9451000C945100FC
:100040000C9451000C9451000C9451000C945100EC
:100050000C9451000C9451000C9451000C945100DC
:100060000C9451000C94510011241FBECFEFD8E026
:10007000DEBFCDBF11E0A0E0B1E0E6ECFCE002C0E5
:1000800005900D92A835B107D9F721E0A8E5B1E0B8
:1000900001C01D92A236B207E1F70E94A6010C949E
:1000A00061060C940000CF93DF9300D000D000D005
:1000B000CDB7DEB749835A8389819A81892B11F4A0
:1000C0000E9442030F900F900F900F900F900F908F
:1000D000DF91CF9108950F931F93CF93DF9300D0BB
:1000E00000D000D0CDB7DEB78C01880F991F0E94D9
:1000F00015029C01A80160E070E080E090E00F90A4
:100100000F900F900F900F900F90DF91CF911F9154
:100110000F910895CF92DF92EF92FF920F931F936A
:10012000CF93DF938C01DC018D919C91892B11F48D
:100130000E94420388E091E09F938F930E945903AD
:1001400087E191E09F938F930E9459030F900F9046
:100150000F900F90C0E0D0E05EE1E52E51E0F52E6B
:100160006AE1C62E61E0D62EF80184819581C81718
:10017000D90784F08DE590E00E946F038AE090E05B
:10018000DF91CF911F910F91FF90EF90DF90CF9073
:100190000C946F03D801ED91FC919E01220F331F47
:1001A000E20FF31F2081318101978C179D0761F4C5
:1001B0003F932F93DF92CF920E9459030F900F909D
:1001C0000F900F902196D0CF3F932F93FF92EF92F5
:1001D000F3CFCF93DF93EC01888199810E94AE0227
:1001E00019821882DF91CF910895FC01A081B1811D
:1001F000109711F40E9442038481958122813381FA
:1002000082179307BCF7880F991FA80FB91F6C932B
:1002100011967C93848195810196958384830895BA
:10022000CF92DF92EF92FF920F931F93CF93DF93C2
:10023000EC017B016A01088119810115110511F496
:100240000E9442032C813D818A819B8128173907B6
:100250002CF083E291E00E947603F2CF68177907D1
:10026000E4F541E0261737070CF440E0C901880F98
:10027000991F411569F1F7013196E21BF30BEE0F5F
:10028000FF1F2E193F09A901440F551FBC016250E1
:1002900071096E0F7F1F600F711F8E0F9F1F800FE0
:1002A000911F0E944703F701EE0FFF1FE00FF11FA0
:1002B000C082D1828C819D8101969D838C83DF9148
:1002C000CF911F910F91FF90EF90DF90CF90089505
:1002D000E2E0F0E040E050E0D9CF8DE391E0BBCF29
:1002E000FC01CA01009751F4808121E030E001C097
:1002F000220F6A95EAF7822B8083089541305105D9
:10030000E1F7208101C0880F6A95EAF78095822382
:10031000F3CFFC01CA014130510541F4208101C0F5
:10032000880F6A95EAF7822B80830895892B69F4F8
:10033000208181E090E0AC0102C0440F551F6A9516
:10034000E2F7BA01609562236083089500D000D07F
:1003500000D0CDB7DEB785E090E00E946B00298326
:100360003A834B835C836D837E8364E070E0CE01CF
:1003700001960E94F50065E070E0CE0101960E94B2
:10038000F50066E070E0CE0101960E94F5008091D4
:1003900000019091010181309105D9F500E010E054
:1003A00032C07801EE0CFF1CE981FA81EE0DFF1DD1
:1003B0006081718140E050E08AE290E00E9470012B
:1003C000E981FA81EE0DFF1D6081718141E050E00D
:1003D0008BE290E00E9489012FEF89E698E121509D
:1003E00080409040E1F700C00000E981FA81EE0D05
:1003F000FF1D6081718140E050E08BE290E00E943F
:1004000089010F5F1F4F8D819E81081719074CF2DC
:10041000BECF892B09F4BBCF80E090E00F900F9006
:100420000F900F900F900F9008950F931F93CF93FD
:10043000DF939C01029710F422E030E0E091580134
:10044000F091590180E090E0A0E0B0E0309791F4A5
:10045000009709F448C0821B930B84309105D0F5B6
:100460008A819B816115710581F1FB0193838283F0
:10047000FE0111C04081518102811381421753074F
:10048000D8F04217530799F4109761F012960C9325
:10049000129713961C933296CF01DF91CF911F9143
:1004A0000F9108950093580110935901F4CF0097CC
:1004B00051F04817590738F0AC01DB01CA01BD0102
:1004C000DF01F801C3CFEF01F9CF90935901809379
:1004D0005801CECFFE01E80FF91F21933193029707
:1004E00099838883D9CF80915A0190915B01892BA0
:1004F00041F4809104019091050190935B018093F8
:100500005A018091020190910301009741F48DB747
:100510009EB74091060150910701841B950B4091B5
:100520005A0150915B014817590708F0B5CF841B59
:10053000950B8217930708F4AFCFB9016E5F7F4F19
:100540008617970708F4A8CF640F751F70935B0197
:1005500060935A01FA01219331939ECFCF93DF9399
:100560009C010097D9F0FC01329713821282C0914E
:100570005801D0915901209709F058C0808191818C
:10058000280F391F80915A0190915B0182179307C0
:1005900009F06DC0F0935B01E0935A01DF91CF91B8
:1005A0000895AE17BF0708F048C0CD0112960D9010
:1005B000BC91A02D1097A9F7DC011396FC93EE9344
:1005C00012974D915D919D01240F351FE217F3079E
:1005D00081F4208131812E5F3F4F240F351FDC01D4
:1005E00011963C932E932281338113963C932E9344
:1005F0001297E0E0F0E08A819B810097E9F5DE0147
:100600008D919D918A0F9B1F20915A0130915B0122
:100610002817390719F6309791F510925901109261
:100620005801D0935B01C0935A01B8CFDE0180E03E
:1006300090E0CE17DF0708F4B8CFB383A2834081E0
:100640005181240F351FA217B30771F44E5F5F4F1E
:100650002D913C911197240F351F318320831296E1
:100660002D913C9133832283009709F0A5CFF0931D
:100670005901E093580192CFFE01EC01BCCF1382E7
:100680001282CFCF81E090E0F8940C946106681755
:10069000790768F4FB01DC01E40FF51FA40FB51F17
:1006A00002C002900E9241505040D8F708950C9429
:1006B0008805A0E0B0E0EFE5F3E00C943A06AE0167
:1006C0004B5F5F4FFA0161917191AF0180915E01C3
:1006D00090915F010E94A203E2E00C9456066091A3
:1006E0005E0170915F010E949C0508950F931F9316
:1006F000CF93DF93E0915E01F0915F01238100E0F1
:1007000010E021FD0EC00FEF1FEFC801DF91CF9168
:100710001F910F9108950995892B11F00FEF1FEF8D
:10072000CE01EC01899160915E0170915F01DB0166
:100730001896ED91FC918111EECF8AE00995892BF5
:1007400021F3E1CFABE0B0E0E8EAF3E00C942D0652
:100750006C017B018A01FC0117821682838181FF73
:10076000C9C19AE0592EF6012381F70123FD859135
:1007700023FF81917F01811509F459C1853239F434
:1007800023FD959123FF91917F01953229F4B601C4
:1007900090E00E949C05E7CF912C612C712CF0E237
:1007A0007F1640F59B32D9F058F49032D1F0933255
:1007B000F1F09E3299F576FC3AC1689476F806C05D
:1007C0009D3291F09033C1F4689470F8F70123FDE5
:1007D000959123FF91917F019111E1CF26C06894FB
:1007E00071F8689472F8F2CF689473F8EFCF689458
:1007F00074F8ECCF77FC19C080ED890F8A30C8F609
:1008000076FE05C0959C800D1124982EDFCF659C47
:10081000800D1124682E689475F8D8CF9C3619F491
:10082000689477F8D3CF983689F2892F8F7D8554D5
:10083000833008F488C0933609F4A4C0933709F4D0
:10084000A7C0933509F4B3C0943619F0993609F06E
:10085000DDC0F80177FED3C06191719181919191D2
:100860008F01272D2F76822E97FF09C090958095B6
:10087000709561957F4F8F4F9F4F689487F82AE05E
:1008800030E0AE014F5F5F4F5A010E94CC058A19DC
:10089000A82EBA2C782C86FE0CC0E89470F8A91407
:1008A00040F484FE05C082FC03C0F82DFE7E7F2E3E
:1008B000B92C74FEF8C0FE01EA0DF11D8081803371
:1008C00009F0EAC0272D297E722E73FC0EC070FE3F
:1008D000F9C09A2CB61418F4960C9B18B62C862DD9
:1008E0008B196B1408F480E0B80EB61408F0ECC055
:1008F0006B1874FEEBC0B60180E390E00E949C058B
:1009000072FE09C088E590E071FC02C088E790E0C3
:10091000B6010E949C05A91408F4E5C0AA94B12C64
:100920004FEFA41AB40ACE0101964C01A80EB91ECD
:10093000F50182915F01B60190E00E949C058A1446
:100940009B04B1F715C00C5F1F4F8FE38983882488
:100950008394912CAE014F5F5F4F5A01E89477F872
:1009600073FC03C08614910498F181149104B9F5C5
:10097000611409F4F8CEB60180E290E00E949C0573
:100980006A94F6CFF801808189830E5F1F4FDFCF15
:10099000F801A190B1908F01692D70E076FC02C042
:1009A0006FEF7FEFC5010E9491054C01D7CFF80191
:1009B000A190B1908F01692D70E076FC02C06FEFBD
:1009C0007FEFC5010E947D054C01689477F8C8CF80
:1009D000B60180E290E00E949C056A94C3CFF501C5
:1009E00077FC859177FE81915F01B60190E00E94CE
:1009F0009C0561106A94F1E08F1A9108B6CF61915D
:100A00007191072E000C880B990B2ACF872CE89444
:100A100084F82AE030E0953739F1572D597F852E3B
:100A20009037A9F058F49835A9F09F36D9F0F6011F
:100A3000868197812B96EFE00C9449069837B9F799
:100A400084FE02C0689482F820E130E00DC0689412
:100A500084F8F6CF74FE03C0852F8660882E20E1CF
:100A600032E002C028E030E0F80187FE10C061915A
:100A70007191819191918F01FE0131965F01AF01DA
:100A80000E94CC058A19A82EE89487F802CF6191BC
:100A9000719180E090E0EFCF72FC02C0B39415CF6B
:100AA000B394B39412CF872D8678811509F40DCFB6
:100AB000F5CFB60180E290E00E949C0583948614F5
:100AC000C0F30DCF8B2CFBCF612C13CF872D8678F5
:100AD000811509F420CF80E271FC8BE277FC8DE276
:100AE000B60190E016CFB60180E390E00E949C052D
:100AF0009A9411CF8FEF9FEF9DCFFC01059061502D
:100B000070400110D8F7809590958E0F9F1F089523
:100B1000FB01DC0102C001900D9241505040D8F71A
:100B20000895FC016150704001900110D8F7809544
:100B300090958E0F9F1F08950F931F93CF93DF9370
:100B4000182F092FEB018B8181FD09C01FEF0FEFDB
:100B5000812F902FDF91CF911F910F91089582FFE8
:100B600014C02E813F818C819D81281739073CF468
:100B7000E881F981CF0101969983888310838E8162
:100B80009F8101969F838E83E3CFE885F985812F2E
:100B90000995892BA1F3DACFFA01AA27283051F160
:100BA000203181F1E8946F936E7F6E5F7F4F8F4F9E
:100BB0009F4FAF4FB1E03ED0B4E03CD0670F781FFD
:100BC000891F9A1FA11D680F791F8A1F911DA11DE2
:100BD0006A0F711D811D911DA11D20D009F468941B
:100BE0003F912AE0269F11243019305D3193DEF6C3
:100BF000CF010895462F4770405D4193B3E00FD079
:100C0000C9F7F6CF462F4F70405D4A3318F0495D63
:100C100031FD4052419302D0A9F7EACFB4E0A69546
:100C20009795879577956795BA95C9F70097610568
:100C3000710508959B01AC010A2E069457954795BE
:100C400037952795BA95C9F7620F731F841F951FB3
:100C5000A01D08952F923F924F925F926F927F92C4
:100C60008F929F92AF92BF92CF92DF92EF92FF92BC
:100C70000F931F93CF93DF93CDB7DEB7CA1BDB0B68
:100C80000FB6F894DEBF0FBECDBF09942A8839880D
:100C900048885F846E847D848C849B84AA84B98414
:100CA000C884DF80EE80FD800C811B81AA81B98120
:100CB000CE0FD11D0FB6F894DEBF0FBECDBFED0134
:060CC0000895F894FFCF37
:100CC6000100000062012000456C656D656E74735D
:100CD600206172653A20005B2000256420002564AF
:100CE6002C20004572726F723A206E6F206D656D12
:100CF6006F727920696E2061727261790045727235
:100D06006F723A20696E76616C69642061727261F5
:080D16007920696E6465780024
:00000001FF
